:020000040800F2
:1000000010040020C101000835050008FF020008A7
:100010003105000809020008130A0008000000006A
:1000200000000000000000000000000009060008B9
:100030000D02000800000000C50500082D0700089B
:10004000DB010008DB010008DB010008DB01000820
:10005000DB010008DB010008DB010008DB01000810
:10006000DB010008DB010008DB010008DB01000800
:10007000DB010008DB010008DB010008DB010008F0
:10008000DB010008DB010008DB010008DB010008E0
:10009000DB010008DB010008DB010008DB010008D0
:1000A000DB010008DB010008DB010008DB010008C0
:1000B000DB010008DB010008DB010008DB010008B0
:1000C000DB010008DB010008DB010008DB010008A0
:1000D000DB010008DB010008DB010008DB01000890
:1000E000DB010008DB010008DB010008DB01000880
:1000F000DB010008DB010008DB010008DB01000870
:10010000DB010008DB010008DB010008DB0100085F
:10011000DB010008DB010008DB010008DB0100084F
:10012000DB010008DB010008DB010008DB0100083F
:10013000DB010008DB010008DB010008DB0100082F
:10014000DB010008DB010008DB010008DB0100081F
:10015000DB010008DB010008DB010008DB0100080F
:10016000DB010008DB010008DB010008DB010008FF
:10017000DB010008DB010008DB010008DB010008EF
:10018000DB010008DB010008DB010008DB010008DF
:10019000DB010008DB010008DB010008DB010008CF
:1001A000DB010008DB010008DB010008DFF80CD0F0
:1001B00000F018F800480047350A00081004002035
:1001C0000648804706480047FEE7FEE7FEE7FEE7F1
:1001D000FEE7FEE7FEE7FEE7FEE7FEE73107000881
:1001E000AD010008064C074D06E0E06840F0010351
:1001F00094E8070098471034AC42F6D3FFF7DAFFD3
:100200009C0A0008BC0A000800BFFEE77047F0B572
:100210000A4600210023002400BF3DE0012505FA25
:1002200001F3156805EA03049C4234D105684F00C8
:100230000326BE40B543056015794E00B5400668FB
:10024000354305601579012D02D01579022D16D19F
:1002500085684F000326BE40B543856055794E0042
:10026000B540866835438560456801268E40B543B4
:100270004560456896798E40B6B235434560C5689D
:100280004F000326BE40B543C560D5794E00B5404A
:10029000C6683543C560491C1029BFD3F0BDF0B511
:1002A000002300244D07ED0E02FA05F3CE1000F1F5
:1002B000200555F826504E07F70E0F26BE40B543D1
:1002C000CF1000F1200646F82750CE1000F120058F
:1002D00055F8265045EA0304CE1000F1200545F8F4
:1002E0002640F0BD0246002013690B400BB10120EF
:1002F00000E000207047418370470183704700BFD2
:10030000FEE700001CB50121052000F05DF9012089
:10031000009000208DF804008DF80700694605481C
:10032000FFF775FF4FF40050009069460148FFF752
:100330006EFF1CBD0008024070B504460D462946FC
:100340002046FFF7CFFF012808D100BF29462046ED
:10035000FFF7C8FF0128F9D0012070BD0020FCE79D
:100360001CB50121882000F02FF94FF48060009027
:1003700001208DF8040000208DF8060001208DF882
:10038000070000208DF8050069461348FFF73FFF7E
:100390004FF40060009069460F48FFF738FF4FF4B4
:1003A0008050009069460C48FFF731FF4FF4006021
:1003B000009069460948FFF72AFF4FF4806006491C
:1003C0001831088040000880400008804110034830
:1003D000FFF791FF1CBD0000001C0240000C024012
:1003E0001CB50121042000F0FFF8402000900220FD
:1003F0008DF8040000208DF806008DF8070002201B
:100400008DF80500032206211D48FFF748FF6946C5
:100410001B48FFF7FCFE0121042000F0E5F8012055
:1004200000908DF8040000208DF8060001208DF862
:10043000070002208DF8050069461148FFF7E7FE26
:1004400001210F48FFF757FF0121102000F0CCF8E1
:100450000820009001208DF8040000208DF806008F
:1004600001208DF8070002208DF805006946054837
:10047000FFF7CDFE08210348FFF73DFF1CBD00003C
:10048000000802400010024010B5FFF7A9FF00F07D
:10049000F7F900F0A5F910BD70B5044600200C492D
:1004A00008700C48B0FBF4F0401E85B229460A489B
:1004B00000F052FA6910084800F050FA002106488E
:1004C00000F04EFA0121044800F075F970BD0000FB
:1004D0000000002040420F000004014070B50646B5
:1004E0000D461446C82070430D4908600846006850
:1004F000C0F30F200B490880094800780A4908809A
:10050000012C04D101210948FFF7F5FE04E01CB9D4
:1005100001210648FFF7F1FE2846FFF7BDFF70BD39
:1005200004000020080000200A000020000802400B
:1005300000BFFEE77047000070B5002100230F22C6
:10054000C4781CB3174C246804F4E064C4F5E06478
:10055000C4F30721C1F10404E3B20A4144789C408A
:10056000E1B28478144021430C07210E0E4C05782B
:100570006155047804F01F050124AC4005786D1125
:10058000AD0005F1E025C5F8004109E0047804F06C
:100590001F050124AC40054D0678761145F826402C
:1005A00070BD00000CED00E000E400E080E100E040
:1005B00002490143024A1160704700000000FA0539
:1005C0000CED00E07047000029B1064A12680243B2
:1005D000044B1A6004E0034A12688243014B1A601C
:1005E000704700003038024029B1064A12680243C1
:1005F000044B1A6004E0034A12688243014B1A60FC
:100600007047000044380240704700000CB50020DD
:10061000019000904148006840F480303F490860F4
:1006200000BF3E48006800F4003000900198401C74
:100630000190009818B90198B0F5A04FF1D1374852
:10064000006800F4003010B10120009001E00020AB
:1006500000900098012860D130484030006840F098
:1006600080502E49403108602D48006840F44040D9
:100670002B4908602948083000682849083108607B
:100680000846006840F4004008600846006840F4EE
:10069000A05008602348091F0860081F006840F048
:1006A0008070091F086000BF1C48006800F00070DF
:1006B0000028F9D01A48006840F4803018490860D2
:1006C00000BF1748406800F480300028F9D0144873
:1006D000006840F400301249086000BF10484068CC
:1006E00000F400300028F9D040F205700E4908608F
:1006F0000A480830006820F0030008490831086003
:100700000846006840F00200086000BF0348083057
:10071000006800F00C000828F8D10CBD0038024039
:1007200000700040195A4007003C0240704700002A
:1007300010B51548006840F470001349086013486C
:10074000006840F001001149086000200F4908319D
:1007500008600E4800680E4908400C4908600D48C2
:10076000091D0860081F006820F48020091F086028
:10077000002006490C310860FFF748FF4FF0006089
:1007800001498039086010BD88ED00E00038024062
:10079000FFFFF6FE1030002421B1028842F08002F3
:1007A000028004E002884FF67F731A40028070478F
:1007B000CA430282704721B1028842F001020280DE
:1007C00004E002884FF6FE731A40028070471AB1A7
:1007D00083890B43838102E083898B438381704744
:1007E00000B589B001210220FFF7FEFE06A800F047
:1007F000FBF809200790B320ADF818000020ADF8F1
:100800002000ADF81A0006A91C4800F0ABF87020D3
:10081000ADF804000120ADF806000020ADF8080096
:10082000042003900020ADF81000ADF8140001A9D9
:10083000124800F041F80821104800F07BF801212F
:100840000E48FFF7A9FF08210C4800F07CF80121B1
:100850000A4800F0D2F801210848FFF7A9FF012259
:1008600011460648FFF7B3FF0421044800F01BF8C7
:1008700000210248FFF79FFF09B000BD00040140BE
:1008800008B54FF4E060FFF793FE2C208DF80000D0
:1008900001208DF801008DF802008DF803006846F4
:1008A000FFF74AFE08BD0A460021018B4FF6FB7395
:1008B000194011430183704770B5002400220023C2
:1008C000058C4FF6FE7635400584028C8388048BB8
:1008D0004FF68F752C40B51E2C400D882C43751E8D
:1008E0002A408D892A434D882A43104DA84202D0C0
:1008F0000F4DA84213D14FF6F7752A40CD892A43F0
:100900004FF6FB752A408D882A434FF6FF652B4032
:100910004FF6FF552B400D8A2B434D8A2B43838086
:1009200004838D684563028470BD000000000140AF
:10093000000401400A460021018B4FF6F77319406D
:1009400011430183704702884FF6F7731A40028003
:1009500002880A4302807047C16270478163704712
:100960004162704700220288184B98420ED0184B03
:1009700098420BD0B0F1804F08D0164B984205D06A
:10098000154B984202D0154B984204D14FF68F7305
:100990001A404B881A43124B984207D0114B984289
:1009A00004D04FF6FF431A400B891A4302804B686C
:1009B000C3620B880385054B984202D0044B9842D2
:1009C00001D18B7A038601238382704700000140A6
:1009D000000401400004004000080040000C0040FA
:1009E00000100040001400404FF0FF314160002132
:1009F0000180018141808172704721B1028842F0FB
:100A00000402028004E002884FF6FB731A40028061
:100A1000704700BFFEE702E008C8121F08C1002AA5
:100A2000FAD170477047002001E001C1121F002A6F
:100A3000FBD17047FFF766FCFFF792FCFFF724FD40
:100A400022E001211148FFF777FC01280AD1104864
:100A5000006880F480600E49086000220D49802003
:100A6000FFF73CFD4FF400510B48FFF765FC0128F0
:100A70000AD10748006880F4006005490860012237
:100A800004498020FFF72AFDDBE700000000024058
:100A9000141C0240A086010000080240BC0A0008A5
:100AA0000000002010000000160A0008CC0A000810
:100AB0001000002000040000260A000801000000C9
:0C0AC0000000000000000000000000002A
:04000005080001AD41
:00000001FF
