:020000040800F2
:1000000068050020C10100087D1400085F11000888
:100010007914000883090008A721000800000000E7
:10002000000000000000000000000000B116000801
:10003000390E000800000000651500080D1A0008C0
:10004000DB010008DB010008DB010008DB01000820
:10005000DB010008DB010008E50E0008DB010008F9
:10006000DB010008DB010008DB010008DB01000800
:10007000DB010008DB010008DB010008DB010008F0
:10008000DB010008DB010008DB010008DB010008E0
:10009000DB010008DB010008DB010008DB010008D0
:1000A000DB010008DB010008DB010008DB010008C0
:1000B000791A0008DB010008DB010008DB010008F9
:1000C000DB010008DB010008DB010008DB010008A0
:1000D000DB0100081D1F0008DB010008DB01000830
:1000E0000D0F0008DB010008DB010008DB01000840
:1000F000DB010008DB010008DB010008DB01000870
:10010000DB010008DB010008DB010008DB0100085F
:10011000DB010008DB010008DB010008DB0100084F
:10012000DB010008DB010008DB010008DB0100083F
:10013000DB010008DB010008DB010008DB0100082F
:10014000DB010008DB010008DB010008DB0100081F
:10015000DB010008DB010008DB010008DB0100080F
:10016000DB010008DB010008DB010008DB010008FF
:10017000DB010008DB010008DB010008DB010008EF
:10018000DB010008DB010008DB010008DB010008DF
:10019000DB010008DB010008DB010008DB010008CF
:1001A000DB010008DB010008DB010008DFF80CD0F0
:1001B00000F052FB004800476D2B00086805002046
:1001C0000648804706480047FEE7FEE7FEE7FEE7F1
:1001D000FEE7FEE7FEE7FEE7FEE7FEE7111A00088E
:1001E000AD01000870B5064601F0FEFF0468054643
:1001F0000A220021304600F071F92C6070BD2DE913
:10020000FE4F81EA030404F0004421F00041009411
:100210004FF0000B23F0004350EA01045ED052EA95
:1002200003045BD0C3F30A54C1F30A552C44A4F26F
:10023000F3340194A0FB0254C1F3130141F4801183
:10024000C3F3130343F4801301FB024400FB034E8A
:10025000840A970A44EA815447EA8357A4FB076853
:1002600002958D0A05FB07854FEA932C04FB0C547D
:100270002705029D4FEA065847EA1637B5EB0805F1
:100280006EEB070C870E920E47EA811742EA831243
:10029000A7FB0201B6EB0B0164EB00042B0D43EA54
:1002A0000C335E1844EB1C50DA465146E7FB020162
:1002B000C5F313044FEA0B3343EA14534FEA0432F5
:1002C000019C43EA0603A4F10C040294009CCDE9CE
:1002D00000B400F04AF903B0BDE8F08F00200146F9
:1002E000F9E72DE9F04D81EA030404F0004B21F019
:1002F000004514464FF0000A23F0004150EA050281
:1003000020D054EA01021DD0C5F30A570246C5F3B6
:100310001303C1F31300C1F30A5640F4801543F4EC
:100320008013A7EB0608101BD64608F2FD3873EBC6
:10033000050002D308F1010801E092185B41B8F111
:10034000000F03DA00200146BDE8F08D00204FF4D5
:100350008011064684460EE0171B73EB050705D394
:10036000121B63EB050306434CEA010C49084FEAF4
:10037000300092185B4150EA0107EDD152EA0300C8
:1003800012D082EA040083EA0501084305D0101B5D
:10039000AB4106D20122002306E000224FF00043C9
:1003A00002E06FF0010253101AEB06004CEB08510B
:1003B00010EB0A0041EB0B01BDE8F04D00F0C6B8B0
:1003C0000EB5C10F80EAE0700844CA07002140F270
:1003D00033438DE80E000A460B4600F0C6F803B022
:1003E00000BD0EB540F2334102910021CDE900116C
:1003F0000A460B4600F0B9F803B000BDC1F30A523B
:1004000010B5C1F3130140F2FF3341F480119A4259
:1004100001DA002010BD40F233439A42A2F2334287
:1004200003DC524200F04AF810BD904010BD30B5D8
:100430000B46014600202022012409E021FA02F5A2
:100440009D4205D303FA02F5491B04FA02F528443C
:10045000151EA2F10102F1DC30BD2DE9F05F054669
:10046000002092469B4688460646814640241BE073
:10047000284641464746224600F020F853465A4651
:10048000C01A914110D311461846224600F0F6F9E1
:100490002D1A67EB01084F4622460120002100F08B
:1004A000EDF917EB00094E41201EA4F10104DFDC39
:1004B000484631462A464346BDE8F09F202A04DBE1
:1004C000203A21FA02F00021704721FA02F3D040CD
:1004D000C2F1200291400843194670472DE9F047C8
:1004E00091460F4680460446002614F8015B2DB164
:1004F00000F0E6F90068405DC007F6D12B2D02D070
:100500002D2D18D0641E4A463946204600F0DCF9ED
:1005100027B13968A14201D1C7F8008071054FF0B9
:1005200002040BD54042002803DD01F05DFE0460AB
:10053000A007BDE8F08746F48066E4E70028F8DA13
:1005400001F052FE04606FF00040F2E710B5141E97
:1005500073F1000408DA401C41F1000192185B417C
:100560001A4301D120F0010010BD2DE9F04D924653
:100570009B4611B1B1FA81F202E0B0FA80F220326A
:10058000904600F07BF904460F4640EA0A0041EA33
:100590000B0153465A46084313D0114653EA010053
:1005A00019D0C8F140025046FFF788FF05460E46B5
:1005B00050465946424600F061F9084305D00120F3
:1005C00004E020463946BDE8F08D0020054346EAA8
:1005D000E0762C4337430A986305E40AA0EB080051
:1005E0000022FD0A44EA47540A3002D500200146A1
:1005F000E9E7010510196941DDE90845001969417C
:10060000BDE8F04DA2E72DE9FE4F804681EA0300E8
:10061000C00F0C46009021F0004123F00045B8EBDC
:100620000200A94105D24046214690461C460B4691
:10063000024623F00040104347D0270DC7F30A00BD
:10064000C3F30A510290401A019040286BDAC3F3B9
:10065000130040F4801B0098924620B10023D2EB97
:10066000030A63EB0B0B01985946C0F14002504658
:1006700000F004F906460D4650465946019A00F02E
:100680000CF910EB08006141002487EA115284EA5A
:10069000E7731A4340D0009A62B3019A012A4FEAE5
:1006A000075215DC001B61EB02014FF0004202EA29
:1006B0000752CDE90042001C41F5801132462B461D
:1006C000FFF753FF03B0BDE8F08F40462146F9E73E
:1006D000001B61EB0201001C41F5801300185B4117
:1006E0002018A2F5001747EB030140EAD570B619B0
:1006F0006D4111E06D084FEA360645EAC0754FEAD4
:100700000752001B61EB0201001C41F580114908F2
:100710004FEA30000019514132462B4603B0BDE884
:10072000F04FFFF713BF0098012240000023D0EBE9
:10073000020263EBE073009821464FEAE074B8EBE5
:10074000000061EB0401E9E783F000435BE781F01F
:10075000004158E72DE9F04D00231A461B1A8A4143
:1007600003DB00200146BDE8F08DC1F30A52C1F35E
:10077000130141F480154FF0000BD10702D100188E
:100780006D41521E0027044640F2FF11384601EB2E
:10079000620A3E468046024600204FF48011FFF771
:1007A0008DFEC2197141BB1846EB0100B4EB030C7E
:1007B00075EB000C04D3E41A65EB000517460E46F2
:1007C000241908F101006D4180463428E3DDF91950
:1007D00046EB0600091BA84103D24FF0FF32134637
:1007E00001E0002213461BEB070046EB0A51BDE86F
:1007F000F04DFFF7ABBEC1F30A52C1F3130140F253
:10080000FF3341F480119A4202DA0020014670471A
:1008100040F233439A42A2F2334202DC5242FFF7E3
:100820004DBE00F02BB8000030B5041E71F100047D
:1008300004DB4FF00044404264EB0101141E73F1ED
:10084000000405DB1C464FF00043524263EB0403F7
:10085000994208BF904230BD064C074D06E0E06863
:1008600040F0010394E8070098471034AC42F6D3F7
:10087000FFF7A0FC4C2E00086C2E0008202A04DB99
:10088000203A00FA02F1002070479140C2F12003A3
:1008900020FA03F3194390407047202A06DBCB1758
:1008A000203A41FA02F043EAE07306E041FA02F32B
:1008B000D040C2F120029140084319467047000021
:1008C00000487047202C00082DE9F05F8246007830
:1008D000002715468B460AF10104B946302801D09D
:1008E0009DB113E014F8010B0127782803D0582894
:1008F00001D045B10AE00DB1102D07D10027102518
:1009000014F8010B02E0082500E00A250026B04695
:100910000EE005FB080005FB06F1012701EB104680
:100920001FFA80F8B6F5803F00D3B94614F8010BE2
:10093000294600F018F80028EBDABBF1000F05D0CB
:100940000FB1641E00E05446CBF80040B9F1000F2F
:1009500006D001F049FC02210160C81EBDE8F09FED
:1009600048EA0640FAE73A2800D2303820F0200260
:10097000412A01D3A2F13700884201D34FF0FF3062
:10098000704700BFFEE7000038B50025FA48007840
:1009900010B10020F8490870F8480078C0F3400012
:1009A00000287DD0F64800786D286ED1F448407854
:1009B000202814D1F248801CFFF714FCF14908608C
:1009C000F1480368F1480268F1480168ED480068A1
:1009D00000F054FC0125EFA001F0F6FB55E0E848DB
:1009E00040786F2851D1E648807876284DD1E44888
:1009F000C078652849D1E24800793A2845D10624D3
:100A0000DF48401DFFF7EEFBDE49086000E0641C94
:100A1000DB48005D2C2803D0D948005D0D28F6D1B5
:100A2000641CD7490819FFF7DDFBD949086000E0CD
:100A3000641CD348005D2C2803D0D148005D0D28EC
:100A4000F6D1641CCE490819FFF7CCFBCF490860EA
:100A500000E0641CCA48005D2C2803D0C848005D33
:100A60000D28F6D1641CC6490819FFF7BBFBC6491F
:100A7000086008460368C5480268C5480168C1485F
:100A8000006800F0FBFB012500BFBD4800786D2821
:100A90007BD1BB4840786F28FAD1B948807800E014
:100AA00098E16428F4D1B648C0786528F0D1B448FC
:100AB000007931286AD1B24840792C28E8D1B04871
:100AC00080796328E4D1AE48C0797928E0D1AC4878
:100AD000007A3A28DCD106240120AD49086000E004
:100AE000641CA748005D0D28FAD1641C0120A749A9
:100AF000086000E0641CA248005D0D28FAD1641C67
:100B00000120A149086000E0641C9D48005D0D289B
:100B1000FAD1641C9A48407A2D2838D19848C07A76
:100B20002F2819D196480C30FFF75CFB9B490860D1
:100B30009B480068096890FBF1F0404291490860C9
:100B40009148036891480268914801688D4800689F
:100B500000F094FB01254EE089480A30FFF742FB84
:100B60008E4908608E4800680968484340428549BC
:100B7000086085480368854802688548016881489F
:100B8000006800F07BFB012535E0D8E034E07C48CC
:100B9000807A2F2818D17A480B30FFF723FB7F4942
:100BA00008607F480068096890FBF1F075490860AB
:100BB000754803687548026875480168714800689F
:100BC00000F05CFB012516E06D480930FFF70AFBD9
:100BD00072490860724800680968484369490860BA
:100BE000694803686948026869480168654800689F
:100BF00000F044FB0125A2E0614800793228FAD1D7
:100C00005F4840792C28F6D15D4880796328F2D17D
:100C10005B48C0797928EED15948007A3A28EAD160
:100C2000062414205A49086000E0641C5448005D02
:100C30000D28FAD1641C14205449086000E0641C9B
:100C40004F48005D0D28FAD1641C14204E490860FD
:100C500000E0641C4A48005D0D28FAD1641C484835
:100C6000407A2D2836D14648C07A2F2819D14448D9
:100C70000C30FFF7B7FA494908604948006809682D
:100C800090FBF1F040423F4908603F4803683F480D
:100C900002683F4801683B48006800F0EFFA012510
:100CA0004CE037480A30FFF79DFA3C4908603C4861
:100CB0000068096848434042324908603248036886
:100CC00032480268324801682E48006800F0D6FABF
:100CD000012533E02A48807A2F2818D128480B3084
:100CE000FFF780FA2D4908602D480068096890FBDD
:100CF000F1F0244908602448036824480268244825
:100D000001682048006800F0B9FA012516E01C4887
:100D10000930FFF767FA214908602148006809682F
:100D2000484318490860184803681848026818487A
:100D300001681448006800F0A1FA012500BF012DE8
:100D400004D018A001F040FA00F002FE0B48007831
:100D500020F002000949087001F014FF07480078EC
:100D600000F00100B0B305480078C0F3800010B176
:100D700013A001F029FA34E0240000201400002020
:100D800064000020280000203400002030000020F3
:100D90002C0000200A0D2020000000003C00002054
:100DA000380000200A0D20CAE4C8EBD3D0CEF3A34C
:100DB000ACC7EBD6D8D0C2CAE4C8EB2E2E2E0000AA
:100DC0000AB5E7BBFAD5FDD4DAD4CBD0D02E2E2E7F
:100DD0000000000021E011480078C0F3800000B955
:100DE00005E00E48007800F001000028F3D100BFB4
:100DF0000A480078C0F3800078B109A001F0E4F956
:100E000008480068009008480368084802680848D5
:100E100001680848006800F0FDFC38BD140000209F
:100E20004F4B0A0028000020340000203000002032
:100E30002C000020100000207047000000B587B093
:100E40000121084600F090FB0121102000F0ACFBCE
:100E500000208DF81A0001208DF81B0002208DF86B
:100E600019008DF818000002059005A91B4800F034
:100E700007F902208DF818004002059005A91748CF
:100E800000F0FEF807220A21144800F041F9072279
:100E90000921124800F03CF94FF4E13001900020A4
:100EA000ADF80800ADF80A00ADF80C00ADF8100080
:100EB0000C20ADF80E0001A9094801F001F900F07D
:100EC000F7FA012240F22551054801F0D4F801213A
:100ED000034801F08DF807B000BD0000000002409B
:100EE0000010014010B5012000F02CF850B1064868
:100EF0000078C0F3800010B1012000F033F9012028
:100F000000F01AF810BD00001400002010B54FF4D6
:100F1000005000F017F858B106480078C0F3800080
:100F200010B9002000F01EF94FF4005000F004F852
:100F300010BD000014000020014908607047000047
:100F4000143C014001460020034A12680A400AB1DD
:100F5000012000E000207047143C0140002123499B
:100F60008279002A3AD00A46126803689A430B46EF
:100F70001A600A1D126803689A430B1D1A600279F1
:100F800011440A6803681A430A60184A0832126852
:100F900003689A43154B08331A601A1D12680368D8
:100FA0009A43124B0C331A604279102A0ED11A1F41
:100FB000126803681A430D4B08331A601A1D126831
:100FC00003681A43094B0C331A600DE00749427954
:100FD00011440A6803681A430A6005E00279114463
:100FE0000A6803689A430A6070470000003C0140A9
:100FF0001FB50121052000F0B7FA0121880300F098
:10100000D3FA00F03CFA0120029000208DF80C0089
:101010008DF80F0002A9184800F032F800210846A8
:1010200000F048FB0120009000208DF8040008200B
:101030008DF8050001208DF806006846FFF78EFF49
:101040004FF40050029002A90C4800F019F80D214D
:10105000022000F02FFB4FF40050009000208DF88C
:1010600004000C208DF8050001208DF8060068466C
:10107000FFF774FF1FBD000000000240000802409F
:10108000F0B50A4600210023002400BF3DE0012501
:1010900005FA01F3156805EA03049C4234D105689A
:1010A0004F000326BE40B543056015794E00B5409C
:1010B0000668354305601579012D02D01579022D9A
:1010C00016D185684F000326BE40B543856055792B
:1010D0004E00B540866835438560456801268E40E0
:1010E000B5434560456896798E40B6B23543456054
:1010F000C5684F000326BE40B543C560D5794E0094
:10110000B540C6683543C560491C1029BFD3F0BD42
:10111000F0B5002300244D07ED0E02FA05F3CE10C2
:1011200000F1200555F826504E07F70E0F26BE4059
:10113000B543CF1000F1200646F82750CE1000F13D
:10114000200555F8265045EA0304CE1000F120058D
:1011500045F82640F0BD418370470183704700BFCA
:10116000FEE7000010B5044674B14FF480410E480C
:10117000FFF7F3FF0D48007820F004000B490870DA
:101180000B4801F021F80EE04FF480410648FFF7CC
:10119000E2FF0648007820F00400001D03490870B3
:1011A000044801F011F810BD0004024014000020B2
:1011B000242C00086C2C00081CB50121084600F006
:1011C000D3F90820009001208DF8040000208DF84C
:1011D000060001208DF8070002208DF804008DF82C
:1011E000050069461E48FFF74BFF012203211C48FA
:1011F000FFF78EFF0121042000F0B6F901200090D6
:101200008DF8040000208DF8060001208DF80700FD
:1012100002208DF8050069461248FFF731FF0121D1
:101220001048FFF798FF0121022000F09DF94FF4CC
:101230008040009001208DF8040000208DF8060009
:1012400001208DF8070002208DF805006946064848
:10125000FFF716FF4FF480410348FFF77CFF1CBDEA
:1012600000000240000802400004024010B5FFF7F1
:10127000A3FF00F09AFD00F04EFD10BD2DE9F047F0
:101280002DED088B04460D4616461F466442002C81
:1012900008DA6948007820F00800083066490870CC
:1012A000644205E06448007820F008006249087054
:1012B00061480078C0F3C00020B901215F48FFF702
:1012C0004AFF03E001215D48FFF747FF012C1FD1D2
:1012D000A01E594948610846007820F00700801C8C
:1012E00008704FF47A7048605548007820F001008B
:1012F000401C534908701421080700F0B2FD0A2170
:10130000480700F0B0FD0121880700F0DEFC8FE007
:10131000002CFCD0642045434643474347F6B720A2
:10132000B0FBF7F0444908614648B0FBF5FA504677
:10133000FFF757F841EC1B0BB0EE4B0AF0EE6B0ACF
:1013400000F056FFB0EE40AAF0EE60AA9FED3E0B13
:1013500053EC102B51EC1A0BFEF751FF9FED3C0B99
:1013600053EC102BFEF7BDFFFFF748F832494860F9
:1013700005EB450040006421B0FBF1F107FB07F0ED
:10138000B0FBF1F8B8F1000F01D14FF0010804FBF8
:1013900006F0A919B0FBF1F9B9F1000F01D14FF036
:1013A0000109C14504D8A9EB04002349C86006E03F
:1013B00008FB05F0B0FBF6F040421F49C8601E482C
:1013C000C06818B94FF0FF301B49C8601A48C068A0
:1013D00020441949886008464068096988420AD84B
:1013E00015480069144948600846007820F0070055
:1013F000C01C087006E01048007820F00700401C70
:101400000D49087000200C4948610D48007820F013
:101410000100401C0A4908701421080700F021FD52
:101420000A21480700F01FFD0121880700F04DFC4C
:10143000BDEC088BBDE8F0874C000020000802409E
:1014400014000020ACDF5F00000000000068BA401C
:101450000000000000005940012805D10549096835
:10146000491C044A116004E002490968491E014A06
:10147000116070471000002000BFFEE7704708B5FC
:101480004FF4C06000F064F806208DF800000120E1
:101490008DF801008DF802008DF80300684600F019
:1014A0001BF828208DF80000684600F015F808BDEC
:1014B00008B54FF4A06000F04BF825208DF800002F
:1014C00001208DF801008DF802008DF803006846B8
:1014D00000F002F808BD000070B5002100230F22C3
:1014E000C4781CB3174C246804F4E064C4F5E064C9
:1014F000C4F30721C1F10404E3B20A4144789C40DB
:10150000E1B28478144021430C07210E0E4C05787B
:101510006155047804F01F050124AC4005786D1175
:10152000AD0005F1E025C5F8004109E0047804F0BC
:101530001F050124AC40054D0678761145F826407C
:1015400070BD00000CED00E000E400E080E100E090
:1015500002490143024A1160704700000000FA0589
:101560000CED00E07047000029B1064A1268024302
:10157000044B1A6004E0034A12688243014B1A606C
:10158000704700003038024029B1064A1268024311
:10159000044B1A6004E0034A12688243014B1A604C
:1015A000704700004038024029B1064A12680243E1
:1015B000044B1A6004E0034A12688243014B1A602C
:1015C0007047000044380240F0B50021002200249A
:1015D000022500260223324F3F6807F00C0121B19B
:1015E000042905D0082937D105E02E4F076036E0E1
:1015F0002D4F076033E02A4F3F1F3F68C7F38056E7
:10160000274F3F1F3F6807F03F036EB1264FB7FBE0
:10161000F3F7DFF88CC0ACF1040CDCF800C0CCF3BD
:10162000881C07FB0CF40CE01E4FB7FBF3F7DFF848
:1016300070C0ACF1040CDCF800C0CCF3881C07FBD4
:101640000CF4174F3F1F3F68C7F301477F1C7D0015
:10165000B4FBF5F7076002E0124F076000BF00BF60
:101660000F4F3F6807F0F0010909104F7A5C0768D7
:10167000D74047600A4F3F6807F4E051890A0B4F93
:101680007A5C4768D7408760054F3F6807F4604140
:10169000490B064F7A5C4768D740C760F0BD000031
:1016A000083802400024F40040787D01000000204A
:1016B0007047000030B500228B071C0F0F2303FA80
:1016C00004F20B4B8C1053F824309343084C8D10CC
:1016D00044F8253023468C1053F824308C07240F0F
:1016E00000FA04F42343024C8D1044F8253030BD39
:1016F000083801400CB50020019000904148006876
:1017000040F480303F49086000BF3E48006800F464
:10171000003000900198401C0190009818B9019881
:10172000B0F5A04FF1D13748006800F4003010B197
:101730000120009001E0002000900098012860D175
:1017400030484030006840F080502E4940310860F9
:101750002D48006840F440402B4908602948083073
:1017600000682849083108600846006840F40040D5
:1017700008600846006840F4A05008602348091F2C
:101780000860081F006840F08070091F086000BFF3
:101790001C48006800F000700028F9D01A48006862
:1017A00040F480301849086000BF1748406800F4D2
:1017B00080300028F9D01448006840F40030124905
:1017C000086000BF1048406800F400300028F9D0DD
:1017D00040F205700E4908600A480830006820F0A1
:1017E00003000849083108600846006840F002001C
:1017F000086000BF03480830006800F00C000828AB
:10180000F8D10CBD0038024000700040195A400762
:10181000003C02402DE9F0412DED068B82B00446DC
:101820000D4616461F46DDF83880414628A000F0D8
:10183000CBFC2846FEF7C4FD41EC190B9FED270BAE
:1018400053EC102BFEF7DBFC41EC180B53EC182B80
:1018500024A000F0B9FC3046FEF7B2FD41EC190BB4
:101860009FED1E0B53EC102BFEF7C9FC41EC180B3F
:1018700053EC182B20A000F0A7FC3846FEF7A0FD83
:1018800041EC1A0B9FED220B53EC102BFEF7B7FC2B
:1018900041EC180B3846FEF793FD41EC1A0B9FED17
:1018A0000F0B53EC102BFEF7AAFC41EC190B8DED3E
:1018B000008B53EC192B18A000F086FC21461EA0CB
:1018C00000F082FC02B0BDEC068BBDE8F0810000A8
:1018D000C2F6B3E5CAFD3A2564000000000000002E
:1018E0000000F03F09BCD3CBD9B6C83A252E3266EA
:1018F0007261642F735E32002020BCF5CBD9B6C86C
:101900003A252E32667261642F735E320000000049
:101910009A999999991923402020D7EEB4F3CBD9FD
:10192000B6C83A252E32667261642F7328252E328E
:101930006672706D290000000DB5E7BBFAB5B1C73E
:10194000B0CEBBD6C33A2025640D0A0D0D0D0000A4
:1019500010B50C4800F038FC0B4800F035FC0BA02B
:1019600000F032FC144800F02FFC14A000F02CFC16
:10197000194800F029FC194800F026FC18A000F0D6
:1019800023FC10BD002E0008B82D00080A737465F2
:101990007073CEAAD5FDCAB1CBB3CAB1D5EBD0FD19
:1019A000D7AAA3ACCEAAB8BACAB1C4E6CAB1D5EB1D
:1019B000D0FD2020200A0000B42C00080AC8E73A15
:1019C0002020206D6F76653A363430302C32302C42
:1019D00032302C32300A0D000C2D0008682D000822
:1019E0000AC8E73A2020206D6F6465322C63793A8B
:1019F0003120BBF2206D6F6465312C63793A2D3153
:101A00002F34A35C0A0A0A0A0A000000704700008B
:101A100010B51548006840F4700013490860134879
:101A2000006840F001001149086000200F490831AA
:101A300008600E4800680E4908400C4908600D48CF
:101A4000091D0860081F006820F48020091F086035
:101A5000002006490C310860FFF74CFE4FF0006093
:101A600001498039086010BD88ED00E0003802406F
:101A7000FFFFF6FE1030002410B50121880700F0AA
:101A800030F900287ED00121880700F01BF9824838
:101A9000406840084FF0804108647F484068C86251
:101AA0007E480078C0F3800028B97B48007820F099
:101AB0000700794908707848007800F0070030B1D5
:101AC00001281DD0022879D0032818D177E0002002
:101AD00073490860734908604FF08040008C20F41F
:101AE00080504FF08041088400214FF0804000F08A
:101AF000ECF86A48007820F0010068490870C7E0F7
:101B00004FF08040008C40F480504FF080410884BA
:101B100061490978C1F3C000FFF79EFC6048006886
:101B2000401C5F4908605C484069401C5A49486154
:101B3000084640685B490968022202FB00115648CA
:101B400040698000401C91FBF0F0534949680C1A31
:101B5000514840685349096802FB00114E484069EA
:101B60008000401C91FBF0F200FB12104D49086010
:101B7000494880684A49096888420CD84648C06884
:101B8000454900E087E048610846007820F00700FA
:101B9000801C087011E040480069A0420DD3424803
:101BA00004603D48046900203E4908603A480078D6
:101BB00020F00700C01C3849087069E025E04FF0AC
:101BC0008040008C40F480504FF0804108843249BE
:101BD0000978C1F3C000FFF73FFC31480068401CA2
:101BE0002F4908602C4804698068096888420BD82E
:101BF0002948C068284948612B480468084600788D
:101C000020F00700801C087042E04FF08040008CFC
:101C100040F480504FF0804108841F490978C1F397
:101C2000C000FFF719FC1E480068401C1C490860F2
:101C300019484069401C18494861084640681949DC
:101C40000968022202FB0011134840698000401C11
:101C500091FBF0F0104949680C1A0F48406811498F
:101C6000096802FB00110C4840698000401C91FB90
:101C7000F0F200FB12100B49086007484069002889
:101C800005DB0548007820F007000349087000BF15
:101C900000BF0148446010BD4C000020140000202B
:101CA0001C000020200000201800002021B1028824
:101CB00042F08002028004E002884FF67F731A40EF
:101CC00002807047CA430282704721B1028842F005
:101CD0000102028004E002884FF6FE731A4002807F
:101CE000704730B50246002000230024158A05EA1B
:101CF0000103958905EA010413B10CB1012000E04C
:101D0000002030BD1AB183890B43838102E08389AF
:101D10008B438381704700B589B001210846FFF7E6
:101D200033FC06A800F0E4F8472007909520ADF8B2
:101D300018000020ADF82000ADF81A0006A94FF0F9
:101D4000804000F093F87020ADF804000120ADF859
:101D500006000020ADF80800232003900220ADF813
:101D600010000020ADF8140001A94FF0804000F0F1
:101D70002FF80821C80600F067F801218807FFF74F
:101D800095FF0121880700F0BCF801218807FFF7C3
:101D900099FF012211469007FFF7B4FF00214FF091
:101DA0008040FFF792FF09B000BD08B54FF4E06036
:101DB000FFF7CEFB1C208DF8000001208DF80100FC
:101DC0008DF802008DF803006846FFF785FB08BD1B
:101DD00070B5002200230024058C4EF6FF763540B6
:101DE0000584038C8488828B48F6FF752A404FF661
:101DF000FF452A400D884FF6FF7606EA05252A435F
:101E00004DF6FF752B408D8906EA05352B434D882D
:101E100006EA05352B430A4DA84202D0094DA842D7
:101E200008D14BF6FF752C400D8A4FF6FF7606EA77
:101E300085152C43848082838D680564038470BD7E
:101E400000000140000401400A460021818B4FF24E
:101E5000FF7319404FF6FF7303EA0223194381838E
:101E60007047C1627047816370470000002202889A
:101E7000184B98420ED0184B98420BD0B0F1804FBF
:101E800008D0164B984205D0154B984202D0154BFE
:101E9000984204D14FF68F731A404B881A43124B65
:101EA000984207D0114B984204D04FF6FF431A4096
:101EB0000B891A4302804B68C3620B880385054B6C
:101EC000984202D0044B984201D18B7A03860123B9
:101ED000838270470000014000040140000400407C
:101EE00000080040000C00400010004000140040BA
:101EF0004FF0FF31416000210180018141808172FA
:101F0000704721B1028842F00402028004E0028896
:101F10004FF6FB731A4002807047000010B540F284
:101F200025512F4800F07DF8002857D02C4800F0AC
:101F300031F9C4B22B48007800F0010000284DD1DF
:101F400028480078C0F38000002847D0082C1AD118
:101F500025480078002841D00821214800F025F9C3
:101F600020211F4800F021F908211D4800F01DF92B
:101F70001D480078401E1C49087000201B491A4A61
:101F8000127888542AE018480078FF280FDA17489A
:101F90001549097844540021024613480078401C32
:101FA000115411480078401C0F49087008E00E4891
:101FB0000078401E0D490C540821094800F0F5F83E
:101FC0000D2C07D10748007820F00200801C05493D
:101FD000087003E02146024800F0E7F810BD000059
:101FE0000010014014000020400000206400002088
:101FF00021B1828942F40052828104E082894DF647
:10200000FF731A408281704702460020B1F5007FBD
:1020100000D100BF13880B400BB1012000E000206D
:10202000704770B50246002400230025002040F6CA
:102030006A16B14200D100BFC1F3421501F01F037F
:10204000012606FA03F3012D02D19689334006E0FA
:10205000022D02D1168A334001E0968A33400C12D9
:10206000012606FA04F41688344013B10CB101209D
:1020700000E0002070BDF0B50346002400260025D6
:10208000002040F66A17B94200D100BF1846C1F3DC
:10209000421401F01F06012707FA06F5012C01D1B1
:1020A0000C3004E0022C01D1103000E014301AB1E1
:1020B00007682F43076002E00768AF430760F0BD81
:1020C0002DE9FF4705460E460024A14600BFA04665
:1020D000B08900B100BF2C8A24F44054F088044336
:1020E0002C82AC8941F20C608443B088318908436A
:1020F000718908430443AC81AC8A24F44074B089EC
:102100000443AC826846FFF75FFA2048854202D05C
:102110001F48854202D1DDF80C9001E0DDF80890FF
:10212000A88900F4004040B109EBC90000EB091098
:1021300031684900B0FBF1F707E009EBC90000EB9B
:10214000091031688900B0FBF1F76420B7FBF0F0AB
:1021500004012009642101FB1078A88900F40040E3
:1021600040B1322000EBC800B0FBF1F000F00700F6
:10217000044308E0322000EB08106421B0FBF1F0CA
:1021800000F00F0004432C81BDE8FF8700100140E0
:102190000014014001468888C0F308007047C1F36D
:1021A00008028280704700BFFEE770B504460D4606
:1021B00029462046FFF7F3FF00BF80212046FFF7A6
:1021C00023FF0028F9D070BD0FB4054B10B503A94B
:1021D000044A029800F020F910BC5DF814FB0000DE
:1021E000492B0008440000200048704748000020A8
:1021F00000B52DED048BB0EE409AF0EE609A83B0FE
:1022000051EC190BFEF7A6FA41EC180B18EE100A68
:1022100018EE901A8DED008B002818BF012008439E
:1022200020F00040C0F17F6000F1E040C00F14D00A
:1022300019EE101A19EE900A8DED009B002918BFB7
:102240000121084320F00040C0F17F6000F1E04030
:10225000C00F04BF012000F017F8B0EE480A03B029
:10226000F0EE680ABDEC048B00BD02E008C8121F46
:1022700008C1002AFAD170477047002001E001C16F
:10228000121F002AFBD17047014908607047000007
:10229000480000202DE9FF5F82B00021DDE9043015
:1022A000020DDDF840B0034318D044F61050A2F2FE
:1022B000FF3242431514119801281FD0A5EB0B00E3
:1022C000401C5FEA000A4FF000064E4FDFF83891DD
:1022D000B046504615D5CAF1000413E01198012408
:1022E0004AA3012801D16FEA0B010298119AC0E9B3
:1022F0000031C0E9024206B0BDE8F09FCBF100001A
:10230000DFE704460021404A491842EB0450CDE97A
:10231000001012E0E00707D032463B4640464946EF
:10232000FDF76DFF8046894632463B46104619460A
:10233000FDF765FF06460F466410002CEAD1DDE983
:102340000401DDE90023BAF1000F06DAFDF757FFBB
:1023500042464B46FDF753FF05E0FDF7C2FF4246FC
:102360004B46FDF7BEFF04460E460022284BFEF703
:102370005BFA03D84FF0FF30014607E00022254BFF
:1023800020463146FEF73FF9FEF735FA102409E002
:10239000002C0ADB0A220023FEF75FF8039B303291
:1023A0001A55641E50EA0102F2D1641C039AC4F16A
:1023B00011031444119A012A03D0012208430DD1BC
:1023C0000AE0084304D000204FF0110B119072E78F
:1023D000A3EB0B056D1E0DE05B4504DD4FF0000225
:1023E00005F1010504E003DA4FF00002A5F1010553
:1023F000002AECD002981199C0E90231C0E90045E9
:1024000079E70000000014400000F03F30000000B9
:102410000000F0430000E03F2DE9FF4F95B09B46E0
:102420008946064600250FE2252877D10024274655
:10243000F84A0121059400E0044316F8013F203BCF
:1024400001FA03F01042F7D130782A2811D06FF04A
:102450002F033078A0F13002092A16D8059A44F0EB
:10246000020402EB820203EB42021044761C059048
:10247000EFE759F8042B0592002A03DA504244F49E
:102480000054059044F00204761C30782E2816D1B2
:1024900016F8010F44F004042A280DD06FF02F0223
:1024A0003078A0F13003092B09D807EB870302EB42
:1024B0004303C718761CF3E759F8047B761C307881
:1024C0006C280FD006DC4C2817D068280DD06A285D
:1024D00014D104E0742810D07A280FD10DE044F410
:1024E00000140AE044F4801401E044F440147278CB
:1024F000824202D104F58014761C761C307866285E
:102500000BD013DC582877D009DC002875D045287B
:10251000F6D04628F4D047281AD19DE118E0632868
:1025200035D0642879D0652812D195E1702873D010
:1025300008DC6728F1D069286FD06E280DD06F288D
:1025400006D1B5E073282CD0752875D0782874D0C2
:102550005A46179990476D1C75E1C4F30250022842
:1025600009D003280DD0D9F8001004280DD00D6033
:1025700009F1040967E1D9F80010EA17C1E900522E
:10258000F6E7D9F800100D80F2E70D70F0E719F8C2
:10259000041B8DF8001000208DF80100EA46012090
:1025A00003E059F804AB4FF0FF3061074FF0000132
:1025B00002D40DE008F101018846B9420FDA8045E6
:1025C000F8DB1AF808100029F4D108E008F101013D
:1025D00088468142FADB1AF808100029F6D10598DE
:1025E0005B46A0EB080721463846179A00F094FA9C
:1025F000284400EB080507E04DE029E10DE01AF85A
:10260000010B5A4617999047B8F10108F7D25B467B
:1026100021463846179A13E142E00A220092C4F399
:1026200002524FF0000A022A08D059F804CB032ABC
:102630004FEAEC710AD00DE029E02AE009F1070128
:1026400021F00702F2E802C1914609E00FFA8CFC82
:102650004FEAEC71042A03D14FFA8CFC4FEAEC717B
:10266000002907DA0A460021DCF1000C61EB0201C7
:102670002D2202E0220504D52B228DF80420012210
:1026800003E0E20701D02022F7E7904659E00A2153
:1026900002E010220DE010214FF0000A00910BE043
:1026A00010224FF0000A44F004040827009203E0CF
:1026B00008224FF0000A0092C4F30252022A05D009
:1026C00059F804CB0021032A08D009E009F10701D9
:1026D00021F00702F2E802C1914605E01FFA8CFCE6
:1026E000042A01D10CF0FF0C4FF00008220728D576
:1026F000702806D0009B83F0100353EA0A0305D02C
:102700000EE040228DF80420012208E05CEA01027C
:1027100006D030228DF804208DF805000222904664
:10272000009B83F0080353EA0A030AD15CEA010222
:1027300001D1620705D530228DF804204FF0010841
:102740007F1E582804D034A003900EA802900DE0FC
:1027500036A0F9E753466046009AFDF77EFE8446B0
:102760000398825C0298401E029002705CEA0100AD
:10277000F0D1029806A9081A00F1200A600702D5D4
:1027800024F4803400E00127574502DDA7EB0A005E
:1027900000E0002000EB0A01009005984144401A37
:1027A0000590E00306D45B462146179A059800F091
:1027B000B3F90544002706E001A85A46C05D179901
:1027C00090476D1C7F1C4745F6DBE0030CD55B464C
:1027D0002146179A059800F09FF9054404E030203F
:1027E0005A46179990476D1C0099481E0090002981
:1027F000F5DC08E0029802995A460078491C0291DB
:10280000179990476D1CBAF10001AAF1010AF1DC99
:1028100065E10000092801003031323334353637A4
:10282000383961626364656600000000303132331C
:1028300034353637383941424344454600000000BC
:1028400000F058F90544761C307800287FF4ECAD90
:1028500019B02846BDE8F08F620700D4062709F1B9
:10286000070222F0070CFCE80223E14603F00048CF
:102870005FEA080C02D00FF2702C0DE05FEA045CF6
:1028800002D50FF2682C07E05FEAC47C02D00FF299
:10289000602C01E0AFF2700C4FF0FF3823F00043E2
:1028A000CDF850C065280CD006DC452809D0462854
:1028B0001DD047283DD13DE0662818D067287ED13D
:1028C00038E00021112F01DB112000E0781CCDE958
:1028D000000106A90EA8FFF7DDFCDDE90F010E9A45
:1028E00003910021009207F1010A04914DE04FF09D
:1028F00000400097CDE9011006A90EA8FFF7CAFC19
:10290000DDE90F0203920E9B11990022DDF80CA065
:102910000093049211B9791C00EB010AB7EB0A008D
:1029200004D4C0F1FF3007F1010A0490AAEB0700BC
:10293000019044E0012F00DA01270021112F01DD71
:10294000112000E03846CDE9000106A90EA8FFF7E6
:10295000A1FCDDE90F010E9A039100210491009280
:10296000BA4621070CD40399514500DA8A46BAF1D8
:10297000010F05DD009AAAF10101515C302908D050
:10298000B84202DA10F1040F06DA0121CDE9011094
:1029900015E0AAF10101E9E7002805DC04990144EA
:1029A0000491AAEB000102E0411C514500DD8A467A
:1029B0000499401A401C01904FF0004002902007FB
:1029C00004D40198504501DBCDF8048000208DF837
:1029D0004F0002980DF14F07B0F1004F25D02B208A
:1029E0000E9002984FF0020800280CDA4042029044
:1029F0002D200E9007E00A210298FDF718FD3031D6
:102A0000029007F8011DB8F10001A8F10108F2DCFD
:102A100002980028EFD1791E0E980870307800F0E7
:102A2000200040F0450007F8020D12A8C01B00F17D
:102A300007081498007800B1012000EB0A01019802
:102A400001EBE07105984144401A401E0590E003F7
:102A500006D45B462146179A059800F05DF80544B8
:102A60001498007818B15A46179990476D1CE003E6
:102A700024D55B462146179A059800F04DF8054489
:102A80001CE00498002807DBDDE90301884203DD30
:102A90000098405C179901E0179930205A469047FA
:102AA000049805F10105401C04900198401E019016
:102AB00004D12E205A46179990476D1CBAF1000197
:102AC000AAF1010ADDDC05E017F8010B5A46179957
:102AD00090476D1CB8F10001A8F10108F4DC5B46D9
:102AE0002146179A0598ABE62D0000002B00000048
:102AF000200000002DE9F041044600251E4617463F
:102B0000880404D405E039462020B0476D1C641EBB
:102B1000F9D52846BDE8F0812DE9F04104460025AD
:102B20001E469046C80301D5302700E020278804C0
:102B300004D505E041463846B0476D1C641EF9D502
:102B40002846BDE8F081000070B504460D46E1B2AC
:102B50000548FFF724FB00BF80210348FFF754FA24
:102B60000028F9D0204670BD00100140FEF740FA61
:102B7000FEF764F9FEF77AFBFEF7EAFE01E0FDF7E7
:102B800003FFFCE70020034908700349014A12785B
:102B900088547047400000206400002000404040FE
:102BA0004040404040404141414141404040404020
:102BB00040404040404040404040404040050202CC
:102BC000020202020202020202020202022020208B
:102BD00020202020202020020202020202029090E7
:102BE00090909090101010101010101010101010E5
:102BF0001010101010101010020202020202888839
:102C00008888888808080808080808080808080844
:102C1000080808080808080802020202400000002C
:102C20009D2B00080A0DC7FDB6AFC6F7BDFBD6B990
:102C3000CAE4B3F6A3A8CDD1BBFAD7B4CCACA3A950
:102C4000B4CBCAB1B5E7BBFACEAACEDEB1A3B3D638
:102C5000C1A6BED8D7B4CCACA3ACBFC9D2D4CAD657
:102C6000B6AFD0FDD7AAB5E7BBFA00000A0DC7FD85
:102C7000B6AFC6F7BBD6B8B4D4CBD0D0A3ACB4CB28
:102C8000CAB1B5E7BBFACEAAB1A3B3D6C1A6BED826
:102C9000D7B4CCACA3ACB4CBCAB1B4AEBFDAD6B85F
:102CA000C1EEBFC9D2D4D5FDB3A3BFD8D6C6B5E750
:102CB000BBFA00000ACAE4C8EB20206D6F76653AC3
:102CC00073746570732C616363656C2C64656365F4
:102CD0006C2C7370656564BAF3B0B4BBD8B3B5BC83
:102CE000FCC5E4D6C3B2CECAFD28C2F6B3E5A3AC98
:102CF000BCD3CBD9B6C8A3ACBCF5CBD9B6C8A3ACB2
:102D0000D7EEB4F3CBD9B6C8290D00000ACAE4C87F
:102D1000EB20206D6F6465782C63793A2B2D792038
:102D2000C5E4D6C3CBD9B6C8D3EBC8A6CAFDA3ACFD
:102D300078CEAA312C32B7D6B1F0CEAAB5CDA1A2A9
:102D4000D6D0CBD92CA1B079A1B120CEAAC8A6CA21
:102D5000FD2CA1B02B2DA1B120CEAAC4E6CBB3CAC5
:102D6000B1D5EB0D000000000ACAE4C8EB20206DCD
:102D70006F6465782C63793A2B2D312F7920C5E467
:102D8000D6C3CBD9B6C8D3EBC8A6CAFD2C20A1B0F8
:102D9000312F79A1B120CEAA79B7D6D6AED2BBC891
:102DA000A6CAFD2CA1B02B2DA1B120CEAAC4E6CB82
:102DB000B3CAB1D5EB0D00000A0DBFAAB7A2B0E5AA
:102DC000B0B4BCFCA3AC4B455931A3BAC7FDB6AFF8
:102DD000C6F7BDFBD6B9CAE4B3F628CDD1BBFAD746
:102DE000B4CCAC2920204B455932A3BAC7FDB6AFAD
:102DF000C6F7BBD6B8B4D5FDB3A3B9A4D7F72000A6
:102E00000A0DA1AAA1AAA1AAA1AAA1AAA1AAA1AA9E
:102E1000A1AAA1AAA1AAA1AAA1AAA1AAA1AAB2BD36
:102E2000BDF8B5E7BBFAC7FDB6AFB3CCD0F22DA164
:102E3000AAA1AAA1AAA1AAA1AAA1AAA1AAA1AAA13A
:102E4000AAA1AAA1AAA1AAA1AA0000006C2E00080A
:102E5000000000204C0000006A220008B82E000884
:102E60004C0000201C0500007A2200080000000031
:102E70000102030401020304060708090000000020
:102E8000040000000000000000000000000000003E
:102E90000100000000000000000000000000000031
:102EA0000000000000190000000000000000000009
:082EB00000000000000000001A
:04000005080001AD41
:00000001FF
